{
  "_format": "hh-sol-artifact-1",
  "contractName": "Counter",
  "sourceName": "contracts/Counter.sol",
  "abi": [
    {
      "inputs": [
        {
          "internalType": "uint256",
          "name": "_counter",
          "type": "uint256"
        }
      ],
      "stateMutability": "nonpayable",
      "type": "constructor"
    },
    {
      "inputs": [
        {
          "internalType": "uint256",
          "name": "x",
          "type": "uint256"
        }
      ],
      "name": "add",
      "outputs": [],
      "stateMutability": "nonpayable",
      "type": "function"
    },
    {
      "inputs": [],
      "name": "count",
      "outputs": [],
      "stateMutability": "nonpayable",
      "type": "function"
    },
    {
      "inputs": [],
      "name": "counter",
      "outputs": [
        {
          "internalType": "uint256",
          "name": "",
          "type": "uint256"
        }
      ],
      "stateMutability": "view",
      "type": "function"
    }
  ],
  "bytecode": "0x608060405234801561001057600080fd5b506040516104943803806104948339818101604052810190610032919061007a565b80600081905550506100a7565b600080fd5b6000819050919050565b61005781610044565b811461006257600080fd5b50565b6000815190506100748161004e565b92915050565b6000602082840312156100905761008f61003f565b5b600061009e84828501610065565b91505092915050565b6103de806100b66000396000f3fe608060405234801561001057600080fd5b50600436106100415760003560e01c806306661abd146100465780631003e2d21461005057806361bc221a1461006c575b600080fd5b61004e61008a565b005b61006a60048036038101906100659190610203565b6100e6565b005b6100746100fd565b604051610081919061023f565b60405180910390f35b600160008082825461009c9190610289565b925050819055506100e46040518060400160405280600d81526020017f6375727220636f756e7465723a00000000000000000000000000000000000000815250600054610103565b565b806000546100f49190610289565b60008190555050565b60005481565b61019b8282604051602401610119929190610378565b6040516020818303038152906040527f9710a9d0000000000000000000000000000000000000000000000000000000007bffffffffffffffffffffffffffffffffffffffffffffffffffffffff19166020820180517bffffffffffffffffffffffffffffffffffffffffffffffffffffffff838183161783525050505061019f565b5050565b60008151905060006a636f6e736f6c652e6c6f679050602083016000808483855afa5050505050565b600080fd5b6000819050919050565b6101e0816101cd565b81146101eb57600080fd5b50565b6000813590506101fd816101d7565b92915050565b600060208284031215610219576102186101c8565b5b6000610227848285016101ee565b91505092915050565b610239816101cd565b82525050565b60006020820190506102546000830184610230565b92915050565b7f4e487b7100000000000000000000000000000000000000000000000000000000600052601160045260246000fd5b6000610294826101cd565b915061029f836101cd565b9250827fffffffffffffffffffffffffffffffffffffffffffffffffffffffffffffffff038211156102d4576102d361025a565b5b828201905092915050565b600081519050919050565b600082825260208201905092915050565b60005b838110156103195780820151818401526020810190506102fe565b83811115610328576000848401525b50505050565b6000601f19601f8301169050919050565b600061034a826102df565b61035481856102ea565b93506103648185602086016102fb565b61036d8161032e565b840191505092915050565b60006040820190508181036000830152610392818561033f565b90506103a16020830184610230565b939250505056fea26469706673582212202debc0883c60ad71c1d9d704d483eeb251f183c62b392decbc893fd891bdad4664736f6c63430008090033",
  "linkReferences": {},
  "deployedLinkReferences": {}
}